:020000040800F2
:10000000000700204D0200083B1200080D110008F7
:10001000391200084304000897140008000000008B
:100020000000000000000000000000003F12000877
:1000300045040008000000003D12000841120008BD
:1000400067020008670200086702000867020008EC
:1000500067020008670200084704000867020008FA
:1000600067020008670200086702000867020008CC
:1000700067020008670200086702000867020008BC
:1000800067020008670200086702000867020008AC
:10009000670200086702000867020008670200089C
:1000A000670200086702000867020008670200088C
:1000B00067020008DD1200086702000867020008F6
:1000C000670200086702000867020008670200086C
:1000D000670200086702000867020008670200085C
:1000E000670200086702000867020008670200084C
:1000F000670200086702000867020008670200083C
:10010000670200086702000867020008670200082B
:10011000670200086702000867020008670200081B
:10012000670200086702000867020008670200080B
:1001300067020008670200086702000867020008FB
:1001400067020008670200086702000867020008EB
:1001500067020008670200086702000867020008DB
:1001600067020008670200086702000867020008CB
:10017000670200086702000867020008000000002C
:1001800067020008670200086702000867020008AB
:10019000670200086702000867020008670200089B
:1001A00067020008670200086702000800F002F812
:1001B00000F03CF80AA090E8000C82448344AAF1C5
:1001C0000107DA4501D100F031F8AFF2090EBAE8C3
:1001D0000F0013F0010F18BFFB1A43F0010318477B
:1001E0005813000078130000103A24BF78C878C173
:1001F000FAD8520724BF30C830C144BF04680C602D
:10020000704700000023002400250026103A28BF74
:1002100078C1FBD8520728BF30C148BF0B60704778
:100220001FB501F078F91FBD10B510BD00F0CFF873
:100230001146FFF7F5FF01F063F900F0EDF803B4A4
:10024000FFF7F2FF03BC00F0F5F800000948804713
:1002500009480047FEE7FEE7FEE7FEE7FEE7FEE7A8
:10026000FEE7FEE7FEE7FEE704480549054A064BC0
:1002700070470000CD120008AD0100080001002009
:1002800000070020000300200003002053EA020CB6
:1002900000F069802DE9F04B4FF00006002B1FBFE6
:1002A000B3FA83F503FA05F424FA05F65E4012BFAB
:1002B0001643B2FA82F502FA05F4C5F120051EBF15
:1002C00022FA05FC44EA0C04203556EA044C4FEAB5
:1002D000144418BF641C4FF000084FF0000990420E
:1002E00071EB030C39D3002919BFB1FA81F701FA78
:1002F00007F6B0FA80F700FA07F6C7F120071EBF2D
:1003000020FA07FC46EA0C062037B6FBF4FCA7EB04
:100310000507103F07F01F0BCBF120060CFA0BFB73
:100320002CFA06F644BFB3460026202FA4BF5E4633
:100330004FF0000B5BEA060C08BF4FF0010B19EB06
:100340000B09ABFB027C48EB0608C01B06FB02CC8A
:100350000BFB03CC71EB0C01C1E70B460246414697
:100360004846BDE8F08B13B54FF000004FF0000198
:10037000AFF30080BDE81C4070474FF0000200B5AD
:10038000134694469646203922BFA0E80C50A0E8B8
:100390000C50B1F12001BFF4F7AF090728BFA0E866
:1003A0000C5048BF0CC05DF804EB890028BF40F832
:1003B000042B08BF704748BF20F8022B11F0804F74
:1003C00018BF00F8012B704770477047704775469B
:1003D00000F02CF8AE4605006946534620F00700B1
:1003E000854618B020B5FFF73FFFBDE820404FF02D
:1003F00000064FF000074FF000084FF0000B21F00F
:100400000701AC46ACE8C009ACE8C009ACE8C009DB
:10041000ACE8C0098D46704710B50446AFF30080C4
:100420002046BDE81040FFF70ABF000000487047B3
:10043000A000002001491820ABBEFEE72600020004
:100440007047FEE77047012000F004B872B6FEE77F
:1004500001F032B8044910B50A68024202D00860BF
:10046000FFF7F6FF10BD0000143C01402DE9F84FE6
:10047000DFF8F8A1002201240AF1040B03254FF054
:100480000F090BF1040E00BF0B6804FA02F63340AB
:10049000B34270D10F7907F00307012F01D0022F6B
:1004A00016D187684FEA420805FA08FC27EA0C07CC
:1004B000D1F80CC00CFA08FC4CEA070CC0F808C0D4
:1004C0004768B7430E79C6F3001696403E43466030
:1004D0000E79F643B6070AD0C7684FEA420C05FA10
:1004E0000CF6B7438E6806FA0CF63E43C6600E79EA
:1004F00006F00306022E10D1D60800EB8608D8F8C5
:10050000206057074FEAD76C09FA0CF7BE430F6912
:1005100007FA0CF73743C8F8207006684FEA420C18
:1005200005FA0CF7BE430F7907F0030707FA0CF73B
:10053000374307604E6816F4403F1CD04C4E376876
:1005400047F480473760366822F0030706F4804698
:100550000096484E07EB060CDCF8086897073F0F3B
:1005600009FA07F826EA0806DFF80C81404503D1AE
:100570004FF0000841E072E0DFF80081404502D111
:100580004FF0010839E0DFF8F880404502D14FF024
:10059000020832E0DFF8EC80404502D14FF003085A
:1005A0002BE0DFF8E480404502D14FF0040824E05E
:1005B000DFF8D880404502D14FF005081DE0DFF894
:1005C000D080404502D14FF0060816E0DFF8C48025
:1005D000404502D14FF007080FE0DFF8BC804045EE
:1005E00002D14FF0080808E0DFF8B080404502D1A2
:1005F0004FF0090801E04FF00A0808FA07F848EA46
:100600000608CCF80888DAF800605746D1F804C02C
:100610009E435FEACC3C00D51E433E60DBF80060A1
:100620005F46D1F804C09E435FEA8C3C00D51E4370
:100630003E60DEF800607746D1F804C09E435FEA72
:10064000CC2C00D51E433E60084F0C373E68D1F8D5
:1006500004C09E435FEA8C2C00D51E433E60521CB2
:10066000102AFFF411AFBDE8F88F0000003C0140F4
:1006700044380240003001400000024000040240C3
:1006800000080240000C024000100240001402402A
:1006900000180240001C02400020024000240240DA
:1006A0000069084000D001207047426921EA020336
:1006B0000A4043EA0241816170470AB18161704793
:1006C0000904FBE70148806870470000040000202F
:1006D000024881680278114481607047040000205C
:1006E0000B4810B5016841F400710160016841F4E4
:1006F00080610160016841F480710160032000F0B5
:1007000089F80F2000F006F800F03EF8002010BD38
:10071000003C024010B5014688B000221D2000F0C8
:1007200059F81D2000F048F813480024016841F0F2
:1007300002010160006805A900F002000690684609
:1007400000F014F900F032F90C494000B0FBF1F16F
:100750000C480B4A491E026040F2E732C0E903240C
:10076000C0E9011400F064FB10B1012008B010BD15
:10077000044800F09FFBF9E74038024040420F0078
:1007800000040040580000200A4808B5016841F400
:1007900080410160006800F4804000900548001F1F
:1007A000016841F080510160006800F080500090C5
:1007B00008BD000044380240002809DB00F01F0299
:1007C000012191404009800000F1E020C0F80011B3
:1007D00070470000F0B40E4B1B680C46C3F30223B5
:1007E000C3F10705042D00D90425191D072901D2DD
:1007F000002300E0DB1E012606FA05F1491E214018
:1008000099409E40761E16403143F0BC00F044BE35
:100810000CED00E0064900F0070208684FF6FF0300
:10082000184040EA0220034A104308607047000065
:100830000CED00E00000FA052DE9F0470E4605003A
:1008400065D0DFF81481D8F80000F7B200F00F008F
:10085000B04207D288F80070D8F8000000F00F000E
:10086000B04254D128683D4C810712D5400703D5CA
:10087000206840F4E05020602878000703D5206805
:1008800040F4604020602068A96820F0F000084330
:1008900020602878C0072DD03049686808390128C1
:1008A00012D0022813D0032811D009688907002923
:1008B0002DDA216821F0030101432160FFF702FFD7
:1008C000814641F2883A0EE009688903EFE709683A
:1008D0008901ECE7FFF7F6FEA0EB0901514502D9CB
:1008E0000320BDE8F0872068696800F00C00B0EBD9
:1008F000810FEFD1D8F80010404601F00F01B1424E
:1009000007D90770006800F00F00B04201D0012045
:10091000E7E72878400705D52068E96820F4E0502B
:10092000084320602878000706D52068296920F44C
:10093000604040EAC100206000F048F82168084AA1
:10094000C1F30311515CC8400649086006480068BD
:10095000FFF7E0FE0020C4E7003C024008380240F8
:100960002015000800000020080000200F2202606F
:100970000C4A136803F003034360136803F0F003A9
:100980008360136803F4E053C36012684FF4E053CC
:1009900003EAD20202610448006800F00F00086018
:1009A0007047000008380240003C024004480549F6
:1009B00000680968044AC1F38221515CC84070474D
:1009C000000000200838024030150008154810B516
:1009D000006810F00C02144813D01449042A0FD0F8
:1009E000082A0ED10F4C241F2268236802F03F0210
:1009F0005B0207D52068C0F38810A0FB010106E068
:100A0000084610BD2168C1F38811A1FB0001002335
:100A1000FFF73CFC2168C1F30141491C4900B0FBD0
:100A2000F1F010BD083802400024F40040787D0148
:100A30002DE9F84F04006ED02078DFF84C93C00702
:100A4000A9F104054AD009F104000168C1F381014C
:100A5000012908D00068C0F3810002280AD1D9F822
:100A60000000400206D52868800337D5606800285A
:100A7000E1D033E06068B0F5803F10D0B0F5A02F32
:100A8000286810D020F480302860286820F4802066
:100A900028606068A8B1FFF715FE06460DE02868DB
:100AA00040F48030F4E740F480202860F7E700BF8E
:100AB000FFF708FE801B642873D828688003F7D5E9
:100AC0000CE0FFF7FFFD064605E000BFFFF7FAFD6B
:100AD000801B6428F0D828688003F7D42078DFF8DA
:100AE000AC8280074FF0000A3ED5A748001D016880
:100AF00011F00C0F08D00068C0F3810002280BD160
:100B0000D9F80000400207D42868800716D5E068AD
:100B1000012800D112E033E1E068B8B10120C8F843
:100B20000000FFF7CFFD064605E000BFFFF7CAFD56
:100B3000801B0228C0D828688007F7D5286821695B
:100B400020F0F80040EAC10028600DE0C8F800A0DD
:100B5000FFF7B8FD064604E0FFF7B4FD801B02284E
:100B60001FD828688007F7D42078000722D5864F41
:100B700087486169703771B101210160FFF7A2FDFB
:100B8000064604E0FFF79EFD801B022809D838685E
:100B90008007F7D50EE0C0F800A0FFF793FD0646EA
:100BA00005E082E0FFF78EFD801B02287DD83868C3
:100BB0008007F7D42078400768D5DFF8CCB100274C
:100BC0000BF13C0BDBF80000C0000BD4DBF800108D
:100BD00041F08051CBF80010DBF80000012700F055
:100BE000805000906B4E3068C00510D4306840F4DF
:100BF00080703060FFF766FD009005E0FFF762FD52
:100C00000099401A022850D83068C005F6D55E4ECB
:100C1000A0686C3601280FD00528306810D020F06D
:100C200001003060306820F004003060A068B8B186
:100C3000FFF748FD00900FE0306840F00100F4E756
:100C400040F004003060F7E7FFF73CFD0099411ADF
:100C500041F28830814266D830688007F4D50EE0D2
:100C6000FFF730FD009007E0FFF72CFD0099411AD7
:100C700041F28830814256D830688007F4D42FB1D1
:100C8000DBF8001021F08051CBF80010A069C8B348
:100C90003D49091D0968C1F3810102294AD0022892
:100CA000504607D0C8F8600000E03CE0FFF70AFDBE
:100CB00004463BE04746C8F86000FFF703FD0646E0
:100CC00005E000BFFFF7FEFC801B02282BD8286838
:100CD0008001F7D4D4E907010843A16A2E4A4908E4
:100CE00002EB0141626A41EA8211084394F82C1038
:100CF00040EA0161C9F8001001203866FFF7E2FC04
:100D0000044606E03EE000BFFFF7DCFC001B0228C3
:100D100009D828688001F7D534E000BFFFF7D2FC7E
:100D2000001B022802D90320BDE8F88F2868800143
:100D3000F4D427E00128F7D0D9F80000E26900F4E4
:100D4000800191421CD1226A00F03F01914217D1EB
:100D500047F6C071626A0140B1EB821F10D1A26AEE
:100D60004FF0FF3300F4403103EB5202B1EB024F7E
:100D700006D194F82C1000F07060B0EB016F01D038
:100D80000120D1E70020CFE70438024000004742AD
:100D9000800E4742007000400000FFFF7047704720
:100DA00070B590F83C20012A32D0012480F83C40F4
:100DB000022280F83D2003685A689D6822F0700680
:100DC0000A6832435A60134B02689A4214D0B2F157
:100DD000804F11D0104B9A420ED0104B9A420BD03C
:100DE0000F4B9A4208D00F4B9A4205D00E4B9A42B5
:100DF00002D00E4B9A4204D1496825F08003194372
:100E0000916080F83D40002180F83C10084670BD9C
:100E1000022070BD000001400004004000080040B6
:100E2000000C004000040140004001400018004058
:100E300010B5040003D094F83D0010B107E0012084
:100E400010BD002084F83C00204600F01FF802206E
:100E500084F83D00211D206800F046FA012084F846
:100E6000460084F83E0084F83F0084F8400084F88F
:100E7000410084F8420084F8430084F8440084F878
:100E8000450084F83D00002010BD000008B5006852
:100E90000649884208D10648016841F0080101600E
:100EA000006800F00800009008BD0000000C004041
:100EB0004038024090F83D10012901D001207047D0
:100EC000022180F83D100168CA6842F00102CA6040
:100ED00000681149884214D0B0F1804F11D00F49F9
:100EE00088420ED00E4988420BD00E49884208D065
:100EF0000D49884205D00D49884202D00C498842EC
:100F000004D1816801F00701062903D0016841F08E
:100F10000101016000207047000001400004004012
:100F200000080040000C0040000401400040014067
:100F300000180040704770B50446006801694FF022
:100F40000005C943890715D4C168C943890711D46D
:100F5000E91E016101202077206880698007204612
:100F600002D0FFF7E7FF04E000F098F8204600F019
:100F700096F8257720680169C943490717D4C168E5
:100F8000C943490713D46FF004010161022020779F
:100F90002068806910F4407F204602D0FFF7CAFF26
:100FA00004E000F07BF8204600F079F8257720680F
:100FB0000169C943090716D4C168C943090712D496
:100FC0006FF008010161042020772068C069800764
:100FD000204602D0FFF7AEFF04E000F05FF82046A5
:100FE00000F05DF8257720680169C943C90617D468
:100FF000C168C943C90613D46FF01001016108200C
:1010000020772068C06910F4407F204602D0FFF7A7
:1010100091FF04E000F042F8204600F040F8257708
:1010200020680169C943C90708D1C168C943C90714
:1010300004D1891E0161204600F032F82068016960
:10104000C943090609D4C168C943090605D46FF02C
:10105000800101612046FFF7A1FE20680169C943B4
:10106000490609D4C168C943490605D46FF0400157
:101070000161204600F049F820680169C9438906EA
:101080000BD4C168C943890607D46FF02001016100
:101090002046BDE87040FFF782BE70BD70477047C4
:1010A00000680349884201D1FFF712BB7047000076
:1010B0000004004070B5044690F83C00012812D0AE
:1010C000012584F83C50022084F83D00204600F0C1
:1010D00079F901004FF0000007D084F83D5084F802
:1010E0003C00012070BD022070BD2168CA6822F05A
:1010F0004002CA602168CA6822F48042CA6084F84B
:101100003D5084F83C00002070BD7047FEE70000B1
:1011100070B586B014216846FFF72FF92A480024DD
:10112000016841F004010160016801F004010591CA
:10113000016841F080010160016801F080010591C2
:10114000016841F001010160016801F001010591B0
:10115000016841F00201016000681C4E00F00200CD
:10116000059001224FF4A0513046FFF7A6FA002265
:10117000F1143046FFF7A1FA4FF40050CDE9000416
:10118000694613480294FFF771F901254FF488105E
:101190000095CDE9010469460E48FFF767F94FF461
:1011A000E0500090CDE90154694630460394FFF7C2
:1011B0005DF900220C210620FFF70CFB0620FFF74B
:1011C000FBFA06B070BD000030380240001C02403F
:1011D000000802400000024010B588B014216846A3
:1011E000FFF7CBF800241348059411490694C0E991
:1011F0000014611EC0E9024104618461FFF718FE1A
:1012000008B1FFF723F9009469460A480194FFF7F3
:1012100051FF08B1FFF71AF9059405A9054806948E
:10122000FFF7BEFD002801D0FFF710F908B010BD90
:10123000000C004010000020FEE7FEE770477047FA
:101240007047000010B592B030216846FFF795F85E
:1012500014210CA8FFF791F81A480024016841F006
:1012600080510160006800F08050119016480168BC
:1012700021F4404141F4804101600068069400F48B
:101280004040119002200090012003901020049013
:101290006846FFF7CDFB08B172B6FEE70F20CDE937
:1012A0000C044FF4A050CDE90E404FF48050109044
:1012B00000210CA8FFF7C0FA002801D072B6FEE7A3
:1012C00012B010BD40380240007000400248016872
:1012D00041F470010160704788ED00E00148FFF7BC
:1012E0002ABE000058000020F0B50268254C264DAB
:1012F000264E274F274B4FF0804CA04209D0604527
:1013000007D0A84205D0B04203D0B84201D09842DD
:1013100004D122F0700E4A6842EA0E02A0421BD0AD
:10132000604519D0A84217D0B04215D0B84213D0AA
:10133000984211D0184DA8420ED0184DA8420BD09B
:10134000174DA84208D0174DA84205D0164DA84207
:1013500002D0164DA84203D122F44075CA682A4330
:101360004D6922F080022A4302608A68C2620A68DC
:101370008262A04201D0984201D109690163012132
:101380004161F0BD00000140000400400008004041
:10139000000C0040000401400040014000440140B6
:1013A0000048014000180040001C004000200040A0
:1013B00010B5846842EA032224F47F440A4322439E
:1013C000826010BD70B5036800249A6822F0700531
:1013D0004A682A4322F007050A682A439A604A6845
:1013E00012F00F0F31D11211082A2ED2DFE802F0CD
:1013F0002E2E2E2E0B2127040B69D1E90221006825
:10140000FFF7D6FF22E00A68052A10D00268136AA7
:10141000156A25F00105156202689569096925F0CC
:10142000F00545EA01119161006803620EE00120B8
:1014300070BD0A698968006800F00AF806E00A6968
:101440008968006800F015F800E00124204670BDAE
:1014500010B5036A046A24F001040462846924F06C
:10146000F00444EA021423F00A020A43846102628F
:1014700010BD10B5036A23F0100303628369046A88
:1014800023F4704343EA023224F0A00343EA01113B
:101490008261016210BDFEE70907090E002804DB26
:1014A00000F1E02080F80014704700F00F0000F118
:1014B000E02080F8141D70474FF480610148FFF769
:1014C000F4B80000001C024070B50B4D4FF40054FE
:1014D00021462846FFF7E4F800280CD0214628468C
:1014E000FFF7DEF80028F9D1BDE870404FF4006145
:1014F0000248FFF7DAB870BD00080240001C024045
:10150000FFF7EEF8FFF79EFEFFF702FEFFF764FE1F
:10151000FFF7DAFFFCE74FF04070E1EE100A70478A
:101520000000000000000000010203040607080993
:10153000000000000102030458150008000000200C
:1015400010000000E80100086815000810000020E5
:10155000F0060000040200080024F400010000006E
:08156000100000000000000073
:04000005080001AD41
:00000001FF
