:020000040800F2
:10000000700600204D020008FB0D00082D0D0008B1
:10001000F90D000843040008AD0E000800000000C0
:10002000000000000000000000000000FF0D0008BC
:100030004504000800000000FD0D0008010E000846
:1000400067020008670200086702000867020008EC
:1000500067020008670200084704000867020008FA
:1000600067020008670200086702000867020008CC
:1000700067020008670200086702000867020008BC
:1000800067020008670200086702000867020008AC
:10009000670200086702000867020008670200089C
:1000A000670200086702000867020008670200088C
:1000B000670200086702000867020008670200087C
:1000C000670200086702000867020008670200086C
:1000D000670200086702000867020008670200085C
:1000E000670200086702000867020008670200084C
:1000F000670200086702000867020008670200083C
:10010000670200086702000867020008670200082B
:10011000670200086702000867020008670200081B
:10012000670200086702000867020008670200080B
:1001300067020008670200086702000867020008FB
:1001400067020008670200086702000867020008EB
:1001500067020008670200086702000867020008DB
:1001600067020008670200086702000867020008CB
:10017000670200086702000867020008000000002C
:1001800067020008670200086702000867020008AB
:10019000670200086702000867020008670200089B
:1001A00067020008670200086702000800F002F812
:1001B00000F03CF80AA090E8000C82448344AAF1C5
:1001C0000107DA4501D100F031F8AFF2090EBAE8C3
:1001D0000F0013F0010F18BFFB1A43F0010318477B
:1001E000640D0000840D0000103A24BF78C878C167
:1001F000FAD8520724BF30C830C144BF04680C602D
:10020000704700000023002400250026103A28BF74
:1002100078C1FBD8520728BF30C148BF0B60704778
:100220001FB500F082FE1FBD10B510BD00F0CFF865
:100230001146FFF7F5FF00F06FFE00F0EDF803B494
:10024000FFF7F2FF03BC00F0F5F800000948804713
:1002500009480047FEE7FEE7FEE7FEE7FEE7FEE7A8
:10026000FEE7FEE7FEE7FEE704480549054A064BC0
:10027000704700009D0E0008AD01000870000020CE
:1002800070060020700200207002002053EA020C69
:1002900000F069802DE9F04B4FF00006002B1FBFE6
:1002A000B3FA83F503FA05F424FA05F65E4012BFAB
:1002B0001643B2FA82F502FA05F4C5F120051EBF15
:1002C00022FA05FC44EA0C04203556EA044C4FEAB5
:1002D000144418BF641C4FF000084FF0000990420E
:1002E00071EB030C39D3002919BFB1FA81F701FA78
:1002F00007F6B0FA80F700FA07F6C7F120071EBF2D
:1003000020FA07FC46EA0C062037B6FBF4FCA7EB04
:100310000507103F07F01F0BCBF120060CFA0BFB73
:100320002CFA06F644BFB3460026202FA4BF5E4633
:100330004FF0000B5BEA060C08BF4FF0010B19EB06
:100340000B09ABFB027C48EB0608C01B06FB02CC8A
:100350000BFB03CC71EB0C01C1E70B460246414697
:100360004846BDE8F08B13B54FF000004FF0000198
:10037000AFF30080BDE81C4070474FF0000200B5AD
:10038000134694469646203922BFA0E80C50A0E8B8
:100390000C50B1F12001BFF4F7AF090728BFA0E866
:1003A0000C5048BF0CC05DF804EB890028BF40F832
:1003B000042B08BF704748BF20F8022B11F0804F74
:1003C00018BF00F8012B704770477047704775469B
:1003D00000F02CF8AE4605006946534620F00700B1
:1003E000854618B020B5FFF73FFFBDE820404FF02D
:1003F00000064FF000074FF000084FF0000B21F00F
:100400000701AC46ACE8C009ACE8C009ACE8C009DB
:10041000ACE8C0098D46704710B50446AFF30080C4
:100420002046BDE81040FFF70ABF000000487047B3
:100430001000002001491820ABBEFEE72600020094
:100440007047FEE77047012000F002B800F040BDA1
:10045000044910B50A68024202D00860FFF7F6FFAF
:1004600010BD0000143C01402DE9F84FDFF8F8A161
:10047000002201240AF1040B03254FF00F090BF1B0
:10048000040E00BF0B6804FA02F63340B34270D189
:100490000F7907F00307012F01D0022F16D18768CB
:1004A0004FEA420805FA08FC27EA0C07D1F80CC00D
:1004B0000CFA08FC4CEA070CC0F808C04768B743C0
:1004C0000E79C6F3001696403E4346600E79F64319
:1004D000B6070AD0C7684FEA420C05FA0CF6B743D4
:1004E0008E6806FA0CF63E43C6600E7906F00306E7
:1004F000022E10D1D60800EB8608D8F820605707E6
:100500004FEAD76C09FA0CF7BE430F6907FA0CF7EC
:100510003743C8F8207006684FEA420C05FA0CF71A
:10052000BE430F7907F0030707FA0CF7374307605C
:100530004E6816F4403F1CD04C4E376847F4804755
:100540003760366822F0030706F480460096484E6E
:1005500007EB060CDCF8086897073F0F09FA07F865
:1005600026EA0806DFF80C81404503D14FF0000869
:1005700041E072E0DFF80081404502D14FF0010810
:1005800039E0DFF8F880404502D14FF0020832E050
:10059000DFF8EC80404502D14FF003082BE0DFF894
:1005A000E480404502D14FF0040824E0DFF8D88011
:1005B000404502D14FF005081DE0DFF8D0804045EE
:1005C00002D14FF0060816E0DFF8C480404502D1A2
:1005D0004FF007080FE0DFF8BC80404502D14FF034
:1005E000080808E0DFF8B080404502D14FF0090864
:1005F00001E04FF00A0808FA07F848EA0608CCF8C4
:100600000888DAF800605746D1F804C09E435FEAD4
:10061000CC3C00D51E433E60DBF800605F46D1F85D
:1006200004C09E435FEA8C3C00D51E433E60DEF86A
:1006300000607746D1F804C09E435FEACC2C00D519
:100640001E433E60084F0C373E68D1F804C09E43FD
:100650005FEA8C2C00D51E433E60521C102AFFF42A
:1006600011AFBDE8F88F0000003C01404438024063
:100670000030014000000240000402400008024037
:10068000000C02400010024000140240001802401A
:10069000001C024000200240002402400069084083
:1006A00000D001207047426921EA02030A4043EA70
:1006B0000241816170470AB1816170470904FBE71B
:1006C00001488068704700000400002002488168EB
:1006D0000278114481607047040000200B4810B577
:1006E000016841F400710160016841F480610160BA
:1006F000016841F480710160032000F06FF80F2061
:1007000000F006F800F024F8002010BD003C024084
:1007100070B50D4D04464FF47A712878B1FBF0F0B6
:100720000A490968B1FBF0F000F0ECFA48B9102C66
:1007300007D200222146501E00F030F800206C60E5
:1007400070BD012070BD00000400002000000020EA
:100750000A4808B5016841F480410160006800F46E
:10076000804000900548001F016841F08051016001
:10077000006800F08050009008BD0000443802403E
:10078000002809DB00F01F02012191404009800090
:1007900000F1E020C0F8001170470000F0B40E4BEB
:1007A0001B680C46C3F30223C3F10705042D00D9CF
:1007B0000425191D072901D2002300E0DB1E0126B4
:1007C00006FA05F1491E214099409E40761E1640CA
:1007D0003143F0BC00F06BBB0CED00E0064900F0CB
:1007E000070208684FF6FF03184040EA0220034A58
:1007F00010430860704700000CED00E00000FA05AF
:100800002DE9F0470E46050065D0DFF81481D8F8D1
:100810000000F7B200F00F00B04207D288F8007075
:10082000D8F8000000F00F00B04254D128683D4CC9
:10083000810712D5400703D5206840F4E0502060BE
:100840002878000703D5206840F4604020602068C5
:10085000A96820F0F000084320602878C0072DD058
:10086000304968680839012812D0022813D00328BB
:1008700011D00968890700292DDA216821F00301C8
:1008800001432160FFF71CFF814641F2883A0EE0E8
:1008900009688903EFE709688901ECE7FFF710FFB2
:1008A000A0EB0901514502D90320BDE8F08720687B
:1008B000696800F00C00B0EB810FEFD1D8F80010A0
:1008C000404601F00F01B14207D90770006800F0FF
:1008D0000F00B04201D00120E7E72878400705D596
:1008E0002068E96820F4E050084320602878000779
:1008F00006D52068296920F4604040EAC1002060E4
:1009000000F018F82168084AC1F30311515CC8408F
:100910000649086006480068FFF7FAFE0020C4E7B1
:10092000003C024008380240340F0008000000205C
:1009300008000020154810B5006810F00C0214489B
:1009400013D01449042A0FD0082A0ED10F4C241FAB
:100950002268236802F03F025B0207D52068C0F3DB
:100960008810A0FB010106E0084610BD2168C1F314
:100970008811A1FB00010023FFF788FC2168C1F367
:100980000141491C4900B0FBF1F010BD083802409C
:100990000024F40040787D012DE9F84F04006ED06A
:1009A0002078DFF84C93C007A9F104054AD009F17B
:1009B00004000168C1F38101012908D00068C0F377
:1009C000810002280AD1D9F80000400206D5286823
:1009D000800337D560680028E1D033E06068B0F567
:1009E000803F10D0B0F5A02F286810D020F48030C0
:1009F0002860286820F4802028606068A8B1FFF78C
:100A00005FFE06460DE0286840F48030F4E740F4CD
:100A100080202860F7E700BFFFF752FE801B6428A4
:100A200073D828688003F7D50CE0FFF749FE064627
:100A300005E000BFFFF744FE801B6428F0D828685B
:100A40008003F7D42078DFF8AC8280074FF0000AEB
:100A50003ED5A748001D016811F00C0F08D00068B2
:100A6000C0F3810002280BD1D9F80000400207D45E
:100A70002868800716D5E068012800D112E033E12C
:100A8000E068B8B10120C8F80000FFF719FE06467B
:100A900005E000BFFFF714FE801B0228C0D82868BD
:100AA0008007F7D52868216920F0F80040EAC100E6
:100AB00028600DE0C8F800A0FFF702FE064604E03B
:100AC000FFF7FEFD801B02281FD828688007F7D497
:100AD0002078000722D5864F87486169703771B149
:100AE00001210160FFF7ECFD064604E0FFF7E8FD99
:100AF000801B022809D838688007F7D50EE0C0F8B7
:100B000000A0FFF7DDFD064605E082E0FFF7D8FD17
:100B1000801B02287DD838688007F7D420784007EA
:100B200068D5DFF8CCB100270BF13C0BDBF80000F7
:100B3000C0000BD4DBF8001041F08051CBF800105E
:100B4000DBF80000012700F0805000906B4E306809
:100B5000C00510D4306840F480703060FFF7B0FDFD
:100B6000009005E0FFF7ACFD0099401A022850D82C
:100B70003068C005F6D55E4EA0686C3601280FD0EF
:100B80000528306810D020F001003060306820F077
:100B900004003060A068B8B1FFF792FD00900FE04C
:100BA000306840F00100F4E740F004003060F7E7FF
:100BB000FFF786FD0099411A41F28830814266D8DC
:100BC00030688007F4D50EE0FFF77AFD009007E06B
:100BD000FFF776FD0099411A41F28830814256D8DC
:100BE00030688007F4D42FB1DBF8001021F0805179
:100BF000CBF80010A069C8B33D49091D0968C1F3CD
:100C0000810102294AD00228504607D0C8F8600066
:100C100000E03CE0FFF754FD04463BE04746C8F8DF
:100C20006000FFF74DFD064605E000BFFFF748FDF9
:100C3000801B02282BD828688001F7D4D4E907014B
:100C40000843A16A2E4A490802EB0141626A41EA5F
:100C50008211084394F82C1040EA0161C9F8001091
:100C600001203866FFF72CFD044606E03EE000BF99
:100C7000FFF726FD001B022809D828688001F7D558
:100C800034E000BFFFF71CFD001B022802D903203F
:100C9000BDE8F88F28688001F4D427E00128F7D058
:100CA000D9F80000E26900F4800191421CD1226A67
:100CB00000F03F01914217D147F6C071626A0140CE
:100CC000B1EB821F10D1A26A4FF0FF3300F4403124
:100CD00003EB5202B1EB024F06D194F82C1000F056
:100CE0007060B0EB016F01D00120D1E70020CFE7A9
:100CF0000438024000004742800E47420070004026
:100D00000000FFFF10B5401EB0F1807F01D301202D
:100D100010BD4FF0E02460610F21601700F0C7F8AC
:100D20000020A06107202061002010BDFEE7000028
:100D300070B586B014216846FFF71FFB2A480024CF
:100D4000016841F004010160016801F004010591AE
:100D5000016841F080010160016801F080010591A6
:100D6000016841F001010160016801F00101059194
:100D7000016841F00201016000681C4E00F00200B1
:100D8000059001224FF4A0513046FFF794FC002259
:100D9000F1143046FFF78FFC4FF40050CDE900040A
:100DA000694613480294FFF75FFB01254FF4881052
:100DB0000095CDE9010469460E48FFF755FB4FF455
:100DC000E0500090CDE90154694630460394FFF7A6
:100DD0004BFB00220C210620FFF7E0FC0620FFF76A
:100DE000CFFC06B070BD000030380240001C02404D
:100DF0000008024000000240FEE7FEE7704770472F
:100E0000FFF764BC30B593B030216846FFF7B5FA00
:100E100014210CA8FFF7B1FA1E480025016841F023
:100E200080510160006800F0805011901A480168FC
:100E300021F4404141F4804101600068022400F443
:100E400040401190012003901020049000940694DB
:100E50000C20CDE907509020CDE9090404200B9027
:100E60006846FFF799FD08B172B6FEE70CA90F209E
:100E700081E831004FF4A0500F904FF48050109053
:100E800003210CA8FFF7BCFC002801D072B6FEE7D6
:100E900013B030BD40380240007000400248016885
:100EA00041F470010160704788ED00E0FEE709073A
:100EB000090E002804DB00F1E02080F800147047E0
:100EC00000F00F0000F1E02080F8141D70470000D2
:100ED0004FF480610148FFF7E6BB0000001C0240B0
:100EE00070B50B4D4FF4005421462846FFF7D6FB52
:100EF00000280CD021462846FFF7D0FB0028F9D166
:100F0000BDE870404FF400610248FFF7CCBB70BDF4
:100F100000080240001C0240FFF7E0FBFFF772FFF1
:100F2000FFF706FFFFF7DCFFFCE74FF04070E1EE54
:100F3000100A7047000000000000000001020304D6
:100F400006070809640F00080000002010000000D8
:100F5000E8010008740F000810000020600600007F
:100F6000040200080024F40001000000100000004A
:040F7000000000007D
:04000005080001AD41
:00000001FF
